{
  "address": "0x97D522f3a1739505e1d0B787A2A6caD4730e937f",
  "abi": [
    {
      "inputs": [
        {
          "internalType": "address",
          "name": "_manager",
          "type": "address"
        },
        {
          "internalType": "address",
          "name": "_creator",
          "type": "address"
        },
        {
          "internalType": "address",
          "name": "_erc20Token",
          "type": "address"
        },
        {
          "internalType": "address",
          "name": "_stablecoin",
          "type": "address"
        },
        {
          "internalType": "address",
          "name": "_uniswapRouter",
          "type": "address"
        },
        {
          "internalType": "address",
          "name": "_uniswapPool",
          "type": "address"
        },
        {
          "internalType": "address",
          "name": "_uniswapOracle",
          "type": "address"
        },
        {
          "internalType": "uint256",
          "name": "_trailAmount",
          "type": "uint256"
        },
        {
          "internalType": "uint256",
          "name": "granularity",
          "type": "uint256"
        },
        {
          "internalType": "uint24",
          "name": "_poolFee",
          "type": "uint24"
        },
        {
          "internalType": "address",
          "name": "_ethUsdPriceFeed",
          "type": "address"
        },
        {
          "internalType": "bool",
          "name": "_wethPair",
          "type": "bool"
        }
      ],
      "stateMutability": "nonpayable",
      "type": "constructor"
    },
    {
      "inputs": [],
      "name": "InvalidAmount",
      "type": "error"
    },
    {
      "inputs": [],
      "name": "InvalidToken",
      "type": "error"
    },
    {
      "inputs": [],
      "name": "StrategyNotActive",
      "type": "error"
    },
    {
      "inputs": [],
      "name": "TransferFailed",
      "type": "error"
    },
    {
      "inputs": [],
      "name": "checkUpkeepNeeded",
      "outputs": [
        {
          "internalType": "bool",
          "name": "",
          "type": "bool"
        },
        {
          "internalType": "bool",
          "name": "",
          "type": "bool"
        },
        {
          "internalType": "bool",
          "name": "",
          "type": "bool"
        },
        {
          "internalType": "uint256",
          "name": "",
          "type": "uint256"
        }
      ],
      "stateMutability": "view",
      "type": "function"
    },
    {
      "inputs": [
        {
          "internalType": "uint256",
          "name": "amount",
          "type": "uint256"
        },
        {
          "internalType": "uint256",
          "name": "tslThreshold",
          "type": "uint256"
        }
      ],
      "name": "deposit",
      "outputs": [],
      "stateMutability": "nonpayable",
      "type": "function"
    },
    {
      "inputs": [],
      "name": "executeLimitBuy",
      "outputs": [],
      "stateMutability": "nonpayable",
      "type": "function"
    },
    {
      "inputs": [],
      "name": "executeTSL",
      "outputs": [],
      "stateMutability": "nonpayable",
      "type": "function"
    },
    {
      "inputs": [],
      "name": "getCreator",
      "outputs": [
        {
          "internalType": "address",
          "name": "",
          "type": "address"
        }
      ],
      "stateMutability": "view",
      "type": "function"
    },
    {
      "inputs": [],
      "name": "getDepositValue",
      "outputs": [
        {
          "internalType": "uint256",
          "name": "",
          "type": "uint256"
        }
      ],
      "stateMutability": "view",
      "type": "function"
    },
    {
      "inputs": [],
      "name": "getERC20Balance",
      "outputs": [
        {
          "internalType": "uint256",
          "name": "",
          "type": "uint256"
        }
      ],
      "stateMutability": "view",
      "type": "function"
    },
    {
      "inputs": [],
      "name": "getERC20TokenAddress",
      "outputs": [
        {
          "internalType": "address",
          "name": "",
          "type": "address"
        }
      ],
      "stateMutability": "view",
      "type": "function"
    },
    {
      "inputs": [],
      "name": "getEthUsdPrice",
      "outputs": [
        {
          "internalType": "uint256",
          "name": "",
          "type": "uint256"
        }
      ],
      "stateMutability": "view",
      "type": "function"
    },
    {
      "inputs": [
        {
          "internalType": "address",
          "name": "token",
          "type": "address"
        }
      ],
      "name": "getExactPrice",
      "outputs": [
        {
          "internalType": "uint256",
          "name": "",
          "type": "uint256"
        }
      ],
      "stateMutability": "view",
      "type": "function"
    },
    {
      "inputs": [],
      "name": "getGranularity",
      "outputs": [
        {
          "internalType": "uint256",
          "name": "",
          "type": "uint256"
        }
      ],
      "stateMutability": "view",
      "type": "function"
    },
    {
      "inputs": [],
      "name": "getManager",
      "outputs": [
        {
          "internalType": "address",
          "name": "",
          "type": "address"
        }
      ],
      "stateMutability": "view",
      "type": "function"
    },
    {
      "inputs": [],
      "name": "getStablecoinAddress",
      "outputs": [
        {
          "internalType": "address",
          "name": "",
          "type": "address"
        }
      ],
      "stateMutability": "view",
      "type": "function"
    },
    {
      "inputs": [],
      "name": "getStablecoinBalance",
      "outputs": [
        {
          "internalType": "uint256",
          "name": "",
          "type": "uint256"
        }
      ],
      "stateMutability": "view",
      "type": "function"
    },
    {
      "inputs": [],
      "name": "getState",
      "outputs": [
        {
          "internalType": "string",
          "name": "",
          "type": "string"
        }
      ],
      "stateMutability": "view",
      "type": "function"
    },
    {
      "inputs": [],
      "name": "getTSLThreshold",
      "outputs": [
        {
          "internalType": "uint256",
          "name": "",
          "type": "uint256"
        }
      ],
      "stateMutability": "view",
      "type": "function"
    },
    {
      "inputs": [],
      "name": "getTrailAmount",
      "outputs": [
        {
          "internalType": "uint256",
          "name": "",
          "type": "uint256"
        }
      ],
      "stateMutability": "view",
      "type": "function"
    },
    {
      "inputs": [],
      "name": "getTwapPrice",
      "outputs": [
        {
          "internalType": "uint256",
          "name": "",
          "type": "uint256"
        }
      ],
      "stateMutability": "view",
      "type": "function"
    },
    {
      "inputs": [],
      "name": "getUniswapPool",
      "outputs": [
        {
          "internalType": "address",
          "name": "",
          "type": "address"
        }
      ],
      "stateMutability": "view",
      "type": "function"
    },
    {
      "inputs": [],
      "name": "getUniswapRouterAddress",
      "outputs": [
        {
          "internalType": "address",
          "name": "",
          "type": "address"
        }
      ],
      "stateMutability": "view",
      "type": "function"
    },
    {
      "inputs": [],
      "name": "s_uniswapPool",
      "outputs": [
        {
          "internalType": "address",
          "name": "",
          "type": "address"
        }
      ],
      "stateMutability": "view",
      "type": "function"
    },
    {
      "inputs": [],
      "name": "toggleSlippageProtection",
      "outputs": [],
      "stateMutability": "nonpayable",
      "type": "function"
    },
    {
      "inputs": [
        {
          "internalType": "uint256",
          "name": "newThreshold",
          "type": "uint256"
        }
      ],
      "name": "updateTSLThreshold",
      "outputs": [],
      "stateMutability": "nonpayable",
      "type": "function"
    },
    {
      "inputs": [
        {
          "internalType": "address",
          "name": "token",
          "type": "address"
        }
      ],
      "name": "withdraw",
      "outputs": [],
      "stateMutability": "nonpayable",
      "type": "function"
    }
  ],
  "transactionHash": "0x1e1e2fa8cc6d5f78f220e6225ed997d1b68ff67cb84d29882a4a7f32653b2932",
  "args": [
    "0x6eF8DfBF3F6904e48581Ce9Bf5a454af38c6aCD2",
    "0x2cb509BE01144aF14FCF944957c401C14c6dF722",
    "0x4200000000000000000000000000000000000042",
    "0x4200000000000000000000000000000000000006",
    "0x68b3465833fb72A70ecDF485E0e4C7bD8665Fc45",
    "0x68F5C0A2DE713a54991E01858Fd27a3832401849",
    "0x9Af728C794f68E457f8ffBF763155622Da66dd62",
    "10",
    "1",
    "3000",
    "0xb7B9A39CC63f856b90B364911CC324dC46aC1770",
    "true"
  ],
  "numDeployments": 6,
  "solcInputHash": "d06e0ae395f7132ffc8ecdde7947b9bb",
  "bytecode": "0x6101006040523480156200001257600080fd5b50604051620018e9380380620018e9833981016040819052620000359162000240565b600160008181556001600160a01b038e81166080528d811660a05282546001600160a01b03199081168e83161784556002805482168e84161790556003805482168d8416179055600480549091168a8316179055891660c05260e087905260098054600888905563ffffffff191661010062ffffff8816021783179055600e80549192909160ff191690830217905550886001600160a01b031663313ce5676040518163ffffffff1660e01b8152600401602060405180830381865afa15801562000104573d6000803e3d6000fd5b505050506040513d601f19601f820116820180604052508101906200012a91906200032c565b600b60006101000a81548160ff021916908360ff160217905550896001600160a01b031663313ce5676040518163ffffffff1660e01b8152600401602060405180830381865afa15801562000183573d6000803e3d6000fd5b505050506040513d601f19601f82011682018060405250810190620001a991906200032c565b600b8054921515600160b01b0260ff60b01b196001600160a01b03909516620100000262010000600160b01b031960ff949094166101000293909316610100600160b01b0319909416939093179190911792909216179055506200035898505050505050505050565b80516001600160a01b03811681146200022a57600080fd5b919050565b805180151581146200022a57600080fd5b6000806000806000806000806000806000806101808d8f0312156200026457600080fd5b6200026f8d62000212565b9b506200027f60208e0162000212565b9a506200028f60408e0162000212565b99506200029f60608e0162000212565b9850620002af60808e0162000212565b9750620002bf60a08e0162000212565b9650620002cf60c08e0162000212565b955060e08d015194506101008d015193506101208d015162ffffff81168114620002f857600080fd5b9250620003096101408e0162000212565b91506200031a6101608e016200022f565b90509295989b509295989b509295989b565b6000602082840312156200033f57600080fd5b815160ff811681146200035157600080fd5b9392505050565b60805160a05160c05160e051611511620003d86000396000818161029b015281816106e401528181610ae401528181610cd30152610d770152600081816101d70152818161025d015281816103850152610b8d01526000818161018501528181610585015261060a0152600081816102d2015261092801526115116000f3fe608060405234801561001057600080fd5b50600436106101585760003560e01c806398d07356116100c3578063d538df491161007c578063d538df49146102f6578063def74f91146102fe578063e2bbb15814610306578063eee2bfa014610319578063f0b9468414610321578063f9a19e541461035157600080fd5b806398d0735614610281578063a0a8045e14610289578063c3736fe614610291578063c612a80814610299578063d39ac0cb146102bf578063d5009584146102d057600080fd5b8063624aa0fd11610115578063624aa0fd1461021657806368e6ea75146102275780637bef4f541461022f57806391b517601461024057806394e49dbc14610248578063983733f01461025b57600080fd5b806307415ae01461015d5780630ee2cb10146101835780631865c57d146101bd5780631966b608146101d25780634096c91c146101f957806351cff8d914610201575b600080fd5b61017061016b36600461115f565b610359565b6040519081526020015b60405180910390f35b7f00000000000000000000000000000000000000000000000000000000000000005b6040516001600160a01b03909116815260200161017a565b6101c5610402565b60405161017a91906111ac565b6101a57f000000000000000000000000000000000000000000000000000000000000000081565b600854610170565b61021461020f36600461115f565b610533565b005b6001546001600160a01b03166101a5565b600754610170565b6002546001600160a01b03166101a5565b610214610648565b6102146102563660046111df565b600555565b7f00000000000000000000000000000000000000000000000000000000000000006101a5565b600a54610170565b610170610736565b600654610170565b7f0000000000000000000000000000000000000000000000000000000000000000610170565b6003546001600160a01b03166101a5565b7f00000000000000000000000000000000000000000000000000000000000000006101a5565b610214610858565b61021461091d565b6102146103143660046111f8565b6109b3565b610170610b5c565b610329610c49565b604080519415158552921515602085015290151591830191909152606082015260800161017a565b600554610170565b600480546040516317f271b760e31b815260009283926001600160a01b03169163bf938db8916103ba917f0000000000000000000000000000000000000000000000000000000000000000918891670de0b6b3a7640000916001910161121a565b602060405180830381865afa1580156103d7573d6000803e3d6000fd5b505050506040513d601f19601f820116820180604052508101906103fb919061125a565b9392505050565b60606000600e5460ff16600381111561041d5761041d611273565b0361044a575060408051808201909152600d81526c155b9a5b9a5d1a585b1a5e9959609a1b602082015290565b6002600e5460ff16600381111561046357610463611273565b0361048b57506040805180820190915260088152674c696d697442757960c01b602082015290565b6001600e5460ff1660038111156104a4576104a4611273565b036104d0575060408051808201909152600c81526b0547261696c696e6753746f760a41b602082015290565b6003600e5460ff1660038111156104e9576104e9611273565b036105115750604080518082019091526008815267496e61637469766560c01b602082015290565b506040805180820190915260078152662ab735b737bbb760c91b602082015290565b6002546000906001600160a01b03908116908316036105bb57506007548061056e5760405163162908e360e11b815260040160405180910390fd5b60006007556002546105aa906001600160a01b03167f000000000000000000000000000000000000000000000000000000000000000083610e2c565b5050600e805460ff19166003179055565b6001546001600160a01b039081169083160361062f5750600654806105f35760405163162908e360e11b815260040160405180910390fd5b60006006556001546105aa906001600160a01b03167f000000000000000000000000000000000000000000000000000000000000000083610e2c565b60405163c1ab6dc160e01b815260040160405180910390fd5b6002600e5460ff16600381111561066157610661611273565b146106ab5760405162461bcd60e51b81526020600482015260156024820152744e6f7420696e204c696d697442757920737461746560581b60448201526064015b60405180910390fd5b6002546001546007546000926106cf926001600160a01b0391821692911690610f2c565b905060006106db610b5c565b905060646107097f00000000000000000000000000000000000000000000000000000000000000008261129f565b61071390836112b8565b61071d91906112cf565b60055550506000600c55600e805460ff19166001179055565b600080600b60029054906101000a90046001600160a01b03166001600160a01b031663feaf968c6040518163ffffffff1660e01b815260040160a060405180830381865afa15801561078c573d6000803e3d6000fd5b505050506040513d601f19601f820116820180604052508101906107b0919061130b565b5050509150506000600b60029054906101000a90046001600160a01b03166001600160a01b031663313ce5676040518163ffffffff1660e01b8152600401602060405180830381865afa15801561080b573d6000803e3d6000fd5b505050506040513d601f19601f8201168201806040525081019061082f919061135b565b905061083c81601261137e565b61084790600a61147b565b61085190836112b8565b9250505090565b6001600e5460ff16600381111561087157610871611273565b146108be5760405162461bcd60e51b815260206004820152601960248201527f4e6f7420696e20547261696c696e6753746f702073746174650000000000000060448201526064016106a2565b6001546002546006546000926108e2926001600160a01b0391821692911690610f2c565b6001549091506108fa906001600160a01b0316610359565b600c5561090a426201518061148a565b600d5550600e805460ff19166002179055565b336001600160a01b037f0000000000000000000000000000000000000000000000000000000000000000161461099f5760405162461bcd60e51b815260206004820152602160248201527f6f6e6c792063616c6c61626c65206279206d616e6167657220636f6e747261636044820152601d60fa1b60648201526084016106a2565b6009805460ff19811660ff90911615179055565b600082116109d45760405163162908e360e11b815260040160405180910390fd5b6003600e5460ff1660038111156109ed576109ed611273565b03610a0b57604051631b92e95360e31b815260040160405180910390fd5b6001546040516323b872dd60e01b8152336004820152306024820152604481018490526000916001600160a01b0316906323b872dd906064016020604051808303816000875af1158015610a63573d6000803e3d6000fd5b505050506040513d601f19601f82011682018060405250810190610a87919061149d565b905080610aa7576040516312171d8360e31b815260040160405180910390fd5b8260066000828254610ab9919061148a565b9091555060009050600e5460ff166003811115610ad857610ad8611273565b03610b2e576064610b097f00000000000000000000000000000000000000000000000000000000000000008261129f565b610b1390846112b8565b610b1d91906112cf565b600555600e805460ff191660011790555b82610b37610b5c565b610b4191906112b8565b600a6000828254610b52919061148a565b9091555050505050565b600480546001546040516317f271b760e31b815260009384936001600160a01b039081169363bf938db893610bc5937f00000000000000000000000000000000000000000000000000000000000000009390921691670de0b6b3a76400009161012c910161121a565b602060405180830381865afa158015610be2573d6000803e3d6000fd5b505050506040513d601f19601f82011682018060405250810190610c06919061125a565b600b54909150600160b01b900460ff1615610c44576000610c25610736565b9050670de0b6b3a7640000610c3a82846112b8565b61085191906112cf565b919050565b60008080806001600e5460ff166003811115610c6757610c67611273565b03610dcc576000610c76610b5c565b600154909150600090610c91906001600160a01b0316610359565b905060008080806064610ca587605a6112b8565b610caf91906112cf565b905060006064610cc088606e6112b8565b610cca91906112cf565b90506000610cf97f0000000000000000000000000000000000000000000000000000000000000000606461129f565b600554610d079060646112b8565b610d1191906112cf565b9050600060646008546064610d26919061148a565b610d3090846112b8565b610d3a91906112cf565b9050838810158015610d4c5750828811155b15610db357600554891015610d645760019650610db3565b80891115610db357600195506064610d9c7f00000000000000000000000000000000000000000000000000000000000000008261129f565b610da6908b6112b8565b610db091906112cf565b94505b5060009b50949950929750909550610e26945050505050565b6002600e5460ff166003811115610de557610de5611273565b03610e26576000610df4610b5c565b90506000600c5482108015610e0a5750600d5442115b15610e13575060015b945060009350839250829150610e269050565b90919293565b604080516001600160a01b038481166024830152604480830185905283518084039091018152606490920183526020820180516001600160e01b031663a9059cbb60e01b1790529151600092839290871691610e8891906114bf565b6000604051808303816000865af19150503d8060008114610ec5576040519150601f19603f3d011682016040523d82523d6000602084013e610eca565b606091505b5091509150818015610ef4575080511580610ef4575080806020019051810190610ef4919061149d565b610f255760405162461bcd60e51b815260206004820152600260248201526114d560f21b60448201526064016106a2565b5050505050565b600080610f3885610359565b60095490915060009062ffffff6101008204169060ff1615610f905769152d02c7e14af6800000610f6b826101f461148a565b610f7585886112b8565b610f7f91906112b8565b610f8991906112cf565b9150610f95565b600091505b60035460405163095ea7b360e01b81526001600160a01b039182166004820152602481018790529088169063095ea7b3906044016020604051808303816000875af1158015610fe8573d6000803e3d6000fd5b505050506040513d601f19601f8201168201806040525081019061100c919061149d565b506040805160e0810182526001600160a01b03898116825288811660208301908152600954610100900462ffffff9081168486019081523060608601908152608086018c815260a087018a8152600060c089018181526003549a516304e45aaf60e01b81528a518a166004820152975189166024890152945190951660448701529151861660648601525160848501525160a484015251831660c48301529293909116906304e45aaf9060e4016020604051808303816000875af11580156110d8573d6000803e3d6000fd5b505050506040513d601f19601f820116820180604052508101906110fc919061125a565b6002549091506001600160a01b03908116908a1603611136578060066000828254611127919061148a565b90915550506000600755611153565b8060076000828254611148919061148a565b909155505060006006555b98975050505050505050565b60006020828403121561117157600080fd5b81356001600160a01b03811681146103fb57600080fd5b60005b838110156111a357818101518382015260200161118b565b50506000910152565b60208152600082518060208401526111cb816040850160208701611188565b601f01601f19169190910160400192915050565b6000602082840312156111f157600080fd5b5035919050565b6000806040838503121561120b57600080fd5b50508035926020909101359150565b6001600160a01b0394851681529290931660208301526fffffffffffffffffffffffffffffffff16604082015263ffffffff909116606082015260800190565b60006020828403121561126c57600080fd5b5051919050565b634e487b7160e01b600052602160045260246000fd5b634e487b7160e01b600052601160045260246000fd5b818103818111156112b2576112b2611289565b92915050565b80820281158282048414176112b2576112b2611289565b6000826112ec57634e487b7160e01b600052601260045260246000fd5b500490565b805169ffffffffffffffffffff81168114610c4457600080fd5b600080600080600060a0868803121561132357600080fd5b61132c866112f1565b945060208601519350604086015192506060860151915061134f608087016112f1565b90509295509295909350565b60006020828403121561136d57600080fd5b815160ff811681146103fb57600080fd5b60ff82811682821603908111156112b2576112b2611289565b600181815b808511156113d25781600019048211156113b8576113b8611289565b808516156113c557918102915b93841c939080029061139c565b509250929050565b6000826113e9575060016112b2565b816113f6575060006112b2565b816001811461140c576002811461141657611432565b60019150506112b2565b60ff84111561142757611427611289565b50506001821b6112b2565b5060208310610133831016604e8410600b8410161715611455575081810a6112b2565b61145f8383611397565b806000190482111561147357611473611289565b029392505050565b60006103fb60ff8416836113da565b808201808211156112b2576112b2611289565b6000602082840312156114af57600080fd5b815180151581146103fb57600080fd5b600082516114d1818460208701611188565b919091019291505056fea2646970667358221220307ead0bdb30d9e6dcaedb35e0173e2fe5ad836ed2ab2601da7510abe19ad9d164736f6c63430008140033",
  "devdoc": {
    "kind": "dev",
    "methods": {
      "checkUpkeepNeeded()": {
        "returns": {
          "_0": "A tuple of four values: a boolean indicating if limit buy should be triggered, a boolean indicating if tsl should be triggered, a boolean indicating if the threshold should be updated, and the new threshold value."
        }
      },
      "deposit(uint256,uint256)": {
        "params": {
          "amount": "The amount of the ERC20 token to deposit.",
          "tslThreshold": "The initial trailing stop loss threshold as a percentage."
        }
      },
      "executeTSL()": {
        "details": "only callable by the manager contract. Non-reentrant."
      },
      "getExactPrice(address)": {
        "details": "gets price at the current block timestamp of asset in reference to its paired asset",
        "returns": {
          "_0": "The latest price of the ERC20 token in reference to its paired asset."
        }
      },
      "getTwapPrice()": {
        "details": "Uses the Uniswap Oracle to get the latest price using TWAP (time-weighted average price) data for the past 5 minutes. Uses Chainlink's price feed to fetch eth price",
        "returns": {
          "_0": "The latest price of the ERC20 token in stablecoins."
        }
      },
      "toggleSlippageProtection()": {
        "details": "Can only be called by the contract owner."
      },
      "updateTSLThreshold(uint256)": {
        "details": "This function is private and should be called only by performUpkeep.",
        "params": {
          "newThreshold": "The new threshold value to set."
        }
      },
      "withdraw(address)": {
        "details": "Allows withdrawal of either ERC20 tokens or stablecoins"
      }
    },
    "version": 1
  },
  "userdoc": {
    "kind": "user",
    "methods": {
      "checkUpkeepNeeded()": {
        "notice": "Checks if upkeep is needed based on TSL conditions."
      },
      "deposit(uint256,uint256)": {
        "notice": "Deposits a specified amount of the ERC20 token into the contract."
      },
      "executeTSL()": {
        "notice": "Swaps asset into stable token on Uniswap and sets the contract into the buying state."
      },
      "getExactPrice(address)": {
        "notice": "Gets the exact price of the ERC20 token in its paired asset. Used for calculating swap parameters."
      },
      "getTwapPrice()": {
        "notice": "Gets the latest price of the ERC20 token in USD. Only used for triggering upkeep actions"
      },
      "toggleSlippageProtection()": {
        "notice": "Activates slippage protection for token swaps."
      },
      "updateTSLThreshold(uint256)": {
        "notice": "Updates the trailing stop loss threshold."
      },
      "withdraw(address)": {
        "notice": "Withdraws the user's funds from the contract."
      }
    },
    "version": 1
  },
  "storageLayout": {
    "storage": [
      {
        "astId": 56,
        "contract": "contracts/TrailMix.sol:TrailMix",
        "label": "_status",
        "offset": 0,
        "slot": "0",
        "type": "t_uint256"
      },
      {
        "astId": 716,
        "contract": "contracts/TrailMix.sol:TrailMix",
        "label": "s_erc20Token",
        "offset": 0,
        "slot": "1",
        "type": "t_address"
      },
      {
        "astId": 718,
        "contract": "contracts/TrailMix.sol:TrailMix",
        "label": "s_stablecoin",
        "offset": 0,
        "slot": "2",
        "type": "t_address"
      },
      {
        "astId": 721,
        "contract": "contracts/TrailMix.sol:TrailMix",
        "label": "s_uniswapRouter",
        "offset": 0,
        "slot": "3",
        "type": "t_contract(ISwapRouter)537"
      },
      {
        "astId": 726,
        "contract": "contracts/TrailMix.sol:TrailMix",
        "label": "s_uniswapOracle",
        "offset": 0,
        "slot": "4",
        "type": "t_contract(IUniswapOracle)686"
      },
      {
        "astId": 730,
        "contract": "contracts/TrailMix.sol:TrailMix",
        "label": "s_tslThreshold",
        "offset": 0,
        "slot": "5",
        "type": "t_uint256"
      },
      {
        "astId": 732,
        "contract": "contracts/TrailMix.sol:TrailMix",
        "label": "s_erc20Balance",
        "offset": 0,
        "slot": "6",
        "type": "t_uint256"
      },
      {
        "astId": 734,
        "contract": "contracts/TrailMix.sol:TrailMix",
        "label": "s_stablecoinBalance",
        "offset": 0,
        "slot": "7",
        "type": "t_uint256"
      },
      {
        "astId": 736,
        "contract": "contracts/TrailMix.sol:TrailMix",
        "label": "s_granularity",
        "offset": 0,
        "slot": "8",
        "type": "t_uint256"
      },
      {
        "astId": 738,
        "contract": "contracts/TrailMix.sol:TrailMix",
        "label": "slippageProtection",
        "offset": 0,
        "slot": "9",
        "type": "t_bool"
      },
      {
        "astId": 740,
        "contract": "contracts/TrailMix.sol:TrailMix",
        "label": "s_poolFee",
        "offset": 1,
        "slot": "9",
        "type": "t_uint24"
      },
      {
        "astId": 742,
        "contract": "contracts/TrailMix.sol:TrailMix",
        "label": "s_depositValue",
        "offset": 0,
        "slot": "10",
        "type": "t_uint256"
      },
      {
        "astId": 744,
        "contract": "contracts/TrailMix.sol:TrailMix",
        "label": "s_stablecoinDecimals",
        "offset": 0,
        "slot": "11",
        "type": "t_uint8"
      },
      {
        "astId": 746,
        "contract": "contracts/TrailMix.sol:TrailMix",
        "label": "s_erc20TokenDecimals",
        "offset": 1,
        "slot": "11",
        "type": "t_uint8"
      },
      {
        "astId": 749,
        "contract": "contracts/TrailMix.sol:TrailMix",
        "label": "s_ethUsdPriceFeed",
        "offset": 2,
        "slot": "11",
        "type": "t_contract(AggregatorV3Interface)45"
      },
      {
        "astId": 751,
        "contract": "contracts/TrailMix.sol:TrailMix",
        "label": "s_wethPair",
        "offset": 22,
        "slot": "11",
        "type": "t_bool"
      },
      {
        "astId": 753,
        "contract": "contracts/TrailMix.sol:TrailMix",
        "label": "s_limitBuyPrice",
        "offset": 0,
        "slot": "12",
        "type": "t_uint256"
      },
      {
        "astId": 755,
        "contract": "contracts/TrailMix.sol:TrailMix",
        "label": "s_limitDelay",
        "offset": 0,
        "slot": "13",
        "type": "t_uint256"
      },
      {
        "astId": 763,
        "contract": "contracts/TrailMix.sol:TrailMix",
        "label": "state",
        "offset": 0,
        "slot": "14",
        "type": "t_enum(ContractState)760"
      }
    ],
    "types": {
      "t_address": {
        "encoding": "inplace",
        "label": "address",
        "numberOfBytes": "20"
      },
      "t_bool": {
        "encoding": "inplace",
        "label": "bool",
        "numberOfBytes": "1"
      },
      "t_contract(AggregatorV3Interface)45": {
        "encoding": "inplace",
        "label": "contract AggregatorV3Interface",
        "numberOfBytes": "20"
      },
      "t_contract(ISwapRouter)537": {
        "encoding": "inplace",
        "label": "contract ISwapRouter",
        "numberOfBytes": "20"
      },
      "t_contract(IUniswapOracle)686": {
        "encoding": "inplace",
        "label": "contract IUniswapOracle",
        "numberOfBytes": "20"
      },
      "t_enum(ContractState)760": {
        "encoding": "inplace",
        "label": "enum TrailMix.ContractState",
        "numberOfBytes": "1"
      },
      "t_uint24": {
        "encoding": "inplace",
        "label": "uint24",
        "numberOfBytes": "3"
      },
      "t_uint256": {
        "encoding": "inplace",
        "label": "uint256",
        "numberOfBytes": "32"
      },
      "t_uint8": {
        "encoding": "inplace",
        "label": "uint8",
        "numberOfBytes": "1"
      }
    }
  }
}