{
  "address": "0x1399CB24A143A724948b59Bf6813a9bd2ec66890",
  "abi": [
    {
      "inputs": [],
      "stateMutability": "nonpayable",
      "type": "constructor"
    },
    {
      "inputs": [],
      "name": "NotContractOwner",
      "type": "error"
    },
    {
      "anonymous": false,
      "inputs": [
        {
          "indexed": true,
          "internalType": "address",
          "name": "creator",
          "type": "address"
        },
        {
          "indexed": true,
          "internalType": "address",
          "name": "contractAddress",
          "type": "address"
        },
        {
          "indexed": true,
          "internalType": "address",
          "name": "token",
          "type": "address"
        },
        {
          "indexed": false,
          "internalType": "uint256",
          "name": "trailAmount",
          "type": "uint256"
        },
        {
          "indexed": false,
          "internalType": "uint256",
          "name": "timestamp",
          "type": "uint256"
        }
      ],
      "name": "ContractDeployed",
      "type": "event"
    },
    {
      "anonymous": false,
      "inputs": [
        {
          "indexed": true,
          "internalType": "address",
          "name": "creator",
          "type": "address"
        },
        {
          "indexed": true,
          "internalType": "address",
          "name": "strategy",
          "type": "address"
        },
        {
          "indexed": false,
          "internalType": "uint256",
          "name": "depositPrice",
          "type": "uint256"
        },
        {
          "indexed": false,
          "internalType": "uint256",
          "name": "amount",
          "type": "uint256"
        },
        {
          "indexed": false,
          "internalType": "address",
          "name": "token",
          "type": "address"
        },
        {
          "indexed": false,
          "internalType": "uint256",
          "name": "timestamp",
          "type": "uint256"
        },
        {
          "indexed": false,
          "internalType": "uint256",
          "name": "trailAmount",
          "type": "uint256"
        }
      ],
      "name": "FundsDeposited",
      "type": "event"
    },
    {
      "anonymous": false,
      "inputs": [
        {
          "indexed": true,
          "internalType": "address",
          "name": "creator",
          "type": "address"
        },
        {
          "indexed": true,
          "internalType": "address",
          "name": "strategy",
          "type": "address"
        },
        {
          "indexed": false,
          "internalType": "uint256",
          "name": "amount",
          "type": "uint256"
        },
        {
          "indexed": false,
          "internalType": "address",
          "name": "token",
          "type": "address"
        },
        {
          "indexed": false,
          "internalType": "uint256",
          "name": "timestamp",
          "type": "uint256"
        },
        {
          "indexed": false,
          "internalType": "uint256",
          "name": "trailAmount",
          "type": "uint256"
        }
      ],
      "name": "FundsWithdrawn",
      "type": "event"
    },
    {
      "anonymous": false,
      "inputs": [
        {
          "indexed": true,
          "internalType": "address",
          "name": "strategy",
          "type": "address"
        },
        {
          "indexed": true,
          "internalType": "address",
          "name": "creator",
          "type": "address"
        },
        {
          "indexed": false,
          "internalType": "uint256",
          "name": "amountIn",
          "type": "uint256"
        },
        {
          "indexed": false,
          "internalType": "uint256",
          "name": "amountOut",
          "type": "uint256"
        },
        {
          "indexed": false,
          "internalType": "address",
          "name": "tokenIn",
          "type": "address"
        },
        {
          "indexed": false,
          "internalType": "address",
          "name": "tokenOut",
          "type": "address"
        },
        {
          "indexed": false,
          "internalType": "uint256",
          "name": "timestamp",
          "type": "uint256"
        }
      ],
      "name": "SwapExecuted",
      "type": "event"
    },
    {
      "anonymous": false,
      "inputs": [
        {
          "indexed": true,
          "internalType": "address",
          "name": "strategy",
          "type": "address"
        },
        {
          "indexed": false,
          "internalType": "uint256",
          "name": "oldThreshold",
          "type": "uint256"
        },
        {
          "indexed": false,
          "internalType": "uint256",
          "name": "newThreshold",
          "type": "uint256"
        },
        {
          "indexed": false,
          "internalType": "uint256",
          "name": "timestamp",
          "type": "uint256"
        }
      ],
      "name": "ThresholdUpdated",
      "type": "event"
    },
    {
      "inputs": [
        {
          "internalType": "uint256",
          "name": "",
          "type": "uint256"
        }
      ],
      "name": "activeStrategies",
      "outputs": [
        {
          "internalType": "address",
          "name": "",
          "type": "address"
        }
      ],
      "stateMutability": "view",
      "type": "function"
    },
    {
      "inputs": [],
      "name": "checker",
      "outputs": [
        {
          "internalType": "bool",
          "name": "canExec",
          "type": "bool"
        },
        {
          "internalType": "bytes",
          "name": "execPayload",
          "type": "bytes"
        }
      ],
      "stateMutability": "view",
      "type": "function"
    },
    {
      "inputs": [
        {
          "internalType": "address",
          "name": "_erc20Token",
          "type": "address"
        },
        {
          "internalType": "address",
          "name": "_stablecoin",
          "type": "address"
        },
        {
          "internalType": "address",
          "name": "_uniswapRouter",
          "type": "address"
        },
        {
          "internalType": "address",
          "name": "_uniswapPool",
          "type": "address"
        },
        {
          "internalType": "address",
          "name": "_uniswapOracle",
          "type": "address"
        },
        {
          "internalType": "uint256",
          "name": "_trailAmount",
          "type": "uint256"
        },
        {
          "internalType": "uint256",
          "name": "_granularity",
          "type": "uint256"
        },
        {
          "internalType": "uint24",
          "name": "_poolFee",
          "type": "uint24"
        },
        {
          "internalType": "address",
          "name": "_ethUsdPriceFeed",
          "type": "address"
        },
        {
          "internalType": "bool",
          "name": "_wethPair",
          "type": "bool"
        }
      ],
      "name": "deployTrailMix",
      "outputs": [],
      "stateMutability": "nonpayable",
      "type": "function"
    },
    {
      "inputs": [
        {
          "internalType": "address",
          "name": "_strategy",
          "type": "address"
        },
        {
          "internalType": "uint256",
          "name": "_amount",
          "type": "uint256"
        },
        {
          "internalType": "uint256",
          "name": "_tslThreshold",
          "type": "uint256"
        }
      ],
      "name": "deposit",
      "outputs": [],
      "stateMutability": "nonpayable",
      "type": "function"
    },
    {
      "inputs": [
        {
          "internalType": "address",
          "name": "user",
          "type": "address"
        }
      ],
      "name": "getUserContracts",
      "outputs": [
        {
          "internalType": "address[]",
          "name": "",
          "type": "address[]"
        }
      ],
      "stateMutability": "view",
      "type": "function"
    },
    {
      "inputs": [
        {
          "internalType": "address",
          "name": "",
          "type": "address"
        }
      ],
      "name": "isActiveStrategy",
      "outputs": [
        {
          "internalType": "bool",
          "name": "",
          "type": "bool"
        }
      ],
      "stateMutability": "view",
      "type": "function"
    },
    {
      "inputs": [
        {
          "internalType": "address",
          "name": "strategy",
          "type": "address"
        },
        {
          "internalType": "bool",
          "name": "buy",
          "type": "bool"
        },
        {
          "internalType": "bool",
          "name": "sell",
          "type": "bool"
        },
        {
          "internalType": "bool",
          "name": "updateThreshold",
          "type": "bool"
        },
        {
          "internalType": "uint256",
          "name": "newThreshold",
          "type": "uint256"
        }
      ],
      "name": "performUpkeep",
      "outputs": [],
      "stateMutability": "nonpayable",
      "type": "function"
    },
    {
      "inputs": [
        {
          "internalType": "address",
          "name": "_executor",
          "type": "address"
        }
      ],
      "name": "setGelatoExecutor",
      "outputs": [],
      "stateMutability": "nonpayable",
      "type": "function"
    },
    {
      "inputs": [
        {
          "internalType": "address",
          "name": "_strategy",
          "type": "address"
        }
      ],
      "name": "toggleSlippageProtection",
      "outputs": [],
      "stateMutability": "nonpayable",
      "type": "function"
    },
    {
      "inputs": [
        {
          "internalType": "address",
          "name": "",
          "type": "address"
        },
        {
          "internalType": "uint256",
          "name": "",
          "type": "uint256"
        }
      ],
      "name": "userContracts",
      "outputs": [
        {
          "internalType": "address",
          "name": "",
          "type": "address"
        }
      ],
      "stateMutability": "view",
      "type": "function"
    },
    {
      "inputs": [
        {
          "internalType": "address",
          "name": "_strategy",
          "type": "address"
        },
        {
          "internalType": "address",
          "name": "_token",
          "type": "address"
        }
      ],
      "name": "withdraw",
      "outputs": [],
      "stateMutability": "nonpayable",
      "type": "function"
    }
  ],
  "transactionHash": "0x23070666719a01bcacd0d7a1791a5b78638d84e939b6d61464b164f2a64da209",
  "args": [],
  "numDeployments": 1,
  "solcInputHash": "f266ffa22ca75fe429c1fe3461e65c30",
  "bytecode": "0x608060405234801561001057600080fd5b506001600055600680546001600160a01b0319163317905561367e806100376000396000f3fe60806040523480156200001157600080fd5b5060043610620000b75760003560e01c8063cf5303cf116200007a578063cf5303cf1462000162578063d2581503146200017c578063ede5123714620001b3578063f3d746f914620001ca578063f557f1a914620001e1578063f940e38514620001f857600080fd5b80630efe6a8b14620000bc57806334c925f014620000d5578063693bf4b71462000104578063b20b2429146200011b578063b789003d146200014b575b600080fd5b620000d3620000cd366004620019b3565b6200020f565b005b620000ec620000e6366004620019eb565b620007c8565b604051620000fb919062001a12565b60405180910390f35b620000d36200011536600462001a7d565b62000840565b620001326200012c36600462001b4d565b62000971565b6040516001600160a01b039091168152602001620000fb565b620001326200015c36600462001b67565b6200099c565b6200016c620009d5565b604051620000fb92919062001b96565b620001a26200018d366004620019eb565b60036020526000908152604090205460ff1681565b6040519015158152602001620000fb565b620000d3620001c436600462001bf0565b62000c50565b620000d3620001db366004620019eb565b62000cc2565b620000d3620001f2366004620019eb565b62000daa565b620000d36200020936600462001c5d565b62000e19565b336001600160a01b0316836001600160a01b0316630ee2cb106040518163ffffffff1660e01b8152600401602060405180830381865afa15801562000258573d6000803e3d6000fd5b505050506040513d601f19601f820116820180604052508101906200027e919062001c9b565b6001600160a01b031614620002a65760405163bfcafd3760e01b815260040160405180910390fd5b6000836001600160a01b031663624aa0fd6040518163ffffffff1660e01b8152600401602060405180830381865afa158015620002e7573d6000803e3d6000fd5b505050506040513d601f19601f820116820180604052508101906200030d919062001c9b565b6040516323b872dd60e01b8152336004820152306024820152604481018590529091506001600160a01b038216906323b872dd906064016020604051808303816000875af115801562000364573d6000803e3d6000fd5b505050506040513d601f19601f820116820180604052508101906200038a919062001cbb565b5060405163095ea7b360e01b81526001600160a01b0385811660048301526024820185905282169063095ea7b3906044016020604051808303816000875af1158015620003db573d6000803e3d6000fd5b505050506040513d601f19601f8201168201806040525081019062000401919062001cbb565b50604051631c57762b60e31b815260048101849052602481018390526001600160a01b0385169063e2bbb15890604401600060405180830381600087803b1580156200044c57600080fd5b505af115801562000461573d6000803e3d6000fd5b505050506001600160a01b03841660009081526003602052604090205460ff1662000631576001805480820182557fb10e2d527612073b26eecdfd717e6a320cf44b4afac2b0732d9fcbe2b7fa0cf60180546001600160a01b0319166001600160a01b0387169081179091556000908152600360205260409020805460ff1916821790558054620004f3919062001cf1565b60026000866001600160a01b03166001600160a01b0316815260200190815260200160002081905550836001600160a01b03167f0bd3cc1c5d7fe612c55d1f11d85563be2fbfe6b40cb0d0361e60b07b996fbeda856001600160a01b031663f9a19e546040518163ffffffff1660e01b8152600401602060405180830381865afa15801562000586573d6000803e3d6000fd5b505050506040513d601f19601f82011682018060405250810190620005ac919062001d0d565b866001600160a01b031663f9a19e546040518163ffffffff1660e01b8152600401602060405180830381865afa158015620005eb573d6000803e3d6000fd5b505050506040513d601f19601f8201168201806040525081019062000611919062001d0d565b604080519283526020830191909152429082015260600160405180910390a25b604051623a0ad760e51b81526001600160a01b03828116600483015285169033907f54578f45afaf673149e624fe60db713945facd7062fb5d9886b8afbf09ee81339083906307415ae090602401602060405180830381865afa1580156200069d573d6000803e3d6000fd5b505050506040513d601f19601f82011682018060405250810190620006c3919062001d0d565b86886001600160a01b031663624aa0fd6040518163ffffffff1660e01b8152600401602060405180830381865afa15801562000703573d6000803e3d6000fd5b505050506040513d601f19601f8201168201806040525081019062000729919062001c9b565b428a6001600160a01b031663c612a8086040518163ffffffff1660e01b8152600401602060405180830381865afa15801562000769573d6000803e3d6000fd5b505050506040513d601f19601f820116820180604052508101906200078f919062001d0d565b6040805195865260208601949094526001600160a01b03929092168484015260608401526080830152519081900360a00190a350505050565b6001600160a01b0381166000908152600460209081526040918290208054835181840281018401909452808452606093928301828280156200083457602002820191906000526020600020905b81546001600160a01b0316815260019091019060200180831162000815575b50505050509050919050565b600030338c8c8c8c8c8c8c8c8c8c6040516200085c906200197a565b6001600160a01b039c8d1681529a8c1660208c0152988b1660408b0152968a1660608a0152948916608089015292881660a088015290871660c087015260e086015261010085015262ffffff1661012084015290921661014082015290151561016082015261018001604051809103906000f080158015620008e2573d6000803e3d6000fd5b5033600081815260046020908152604080832080546001810182559084529282902090920180546001600160a01b0319166001600160a01b0386811691821790925583518c815242938101939093529495508f169392917f27f210c3cfa1b3c49e3da52fd1c2be0f3ffd46ffa289b41a57477c87e54099c3910160405180910390a45050505050505050505050565b600181815481106200098257600080fd5b6000918252602090912001546001600160a01b0316905081565b60046020528160005260406000208181548110620009b957600080fd5b6000918252602090912001546001600160a01b03169150829050565b600060606000606060005b60015481101562000c21576000806000806001858154811062000a075762000a0762001d27565b9060005260206000200160009054906101000a90046001600160a01b03166001600160a01b031663f0b946846040518163ffffffff1660e01b8152600401608060405180830381865afa15801562000a63573d6000803e3d6000fd5b505050506040513d601f19601f8201168201806040525081019062000a89919062001d3d565b9350935093509350821562000b3b57600163ede5123760e01b6001878154811062000ab85762000ab862001d27565b6000918252602090912001546040516001600160a01b03909116602482015286151560448201528515156064820152841515608482015260a4810184905260c40160408051601f198184030181529190526020810180516001600160e01b03166001600160e01b031990931692909217909152909a909950975050505050505050565b831562000b6257600163ede5123760e01b6001878154811062000ab85762000ab862001d27565b811562000c07578662000c07576001965063ede5123760e01b6001868154811062000b915762000b9162001d27565b6000918252602090912001546040516001600160a01b03909116602482015285151560448201528415156064820152831515608482015260a4810183905260c40160408051601f198184030181529190526020810180516001600160e01b03166001600160e01b03199093169290921790915295505b50505050808062000c189062001d97565b915050620009e0565b50811562000c3457600194909350915050565b6000604051806020016040528060008152509350935050509091565b3330148062000c6957506005546001600160a01b031633145b62000cac5760405162461bcd60e51b815260206004820152600e60248201526d139bdd08185d5d1a1bdc9a5e995960921b60448201526064015b60405180910390fd5b62000cbb858585858562001171565b5050505050565b336001600160a01b0316816001600160a01b0316630ee2cb106040518163ffffffff1660e01b8152600401602060405180830381865afa15801562000d0b573d6000803e3d6000fd5b505050506040513d601f19601f8201168201806040525081019062000d31919062001c9b565b6001600160a01b03161462000d595760405163bfcafd3760e01b815260040160405180910390fd5b806001600160a01b031663def74f916040518163ffffffff1660e01b8152600401600060405180830381600087803b15801562000d9557600080fd5b505af115801562000cbb573d6000803e3d6000fd5b6006546001600160a01b0316331462000df75760405162461bcd60e51b815260206004820152600e60248201526d139bdd08185d5d1a1bdc9a5e995960921b604482015260640162000ca3565b600580546001600160a01b0319166001600160a01b0392909216919091179055565b62000e23620017c2565b336001600160a01b0316826001600160a01b0316630ee2cb106040518163ffffffff1660e01b8152600401602060405180830381865afa15801562000e6c573d6000803e3d6000fd5b505050506040513d601f19601f8201168201806040525081019062000e92919062001c9b565b6001600160a01b03161462000eba5760405163bfcafd3760e01b815260040160405180910390fd5b6000826001600160a01b031663624aa0fd6040518163ffffffff1660e01b8152600401602060405180830381865afa15801562000efb573d6000803e3d6000fd5b505050506040513d601f19601f8201168201806040525081019062000f21919062001c9b565b6001600160a01b0316826001600160a01b03160362000fa757826001600160a01b031663c3736fe66040518163ffffffff1660e01b8152600401602060405180830381865afa15801562000f79573d6000803e3d6000fd5b505050506040513d601f19601f8201168201806040525081019062000f9f919062001d0d565b90506200100f565b826001600160a01b03166368e6ea756040518163ffffffff1660e01b8152600401602060405180830381865afa15801562000fe6573d6000803e3d6000fd5b505050506040513d601f19601f820116820180604052508101906200100c919062001d0d565b90505b6040516351cff8d960e01b81526001600160a01b0383811660048301528416906351cff8d990602401600060405180830381600087803b1580156200105357600080fd5b505af115801562001068573d6000803e3d6000fd5b505050506001600160a01b03831660009081526003602052604090205460ff1615620010995762001099836200181d565b826001600160a01b0316336001600160a01b03167fcd2299771f9c7bc8a19e7a6b8237b9c07135d5d80ebd5dcd88d60f7212b6537a838542886001600160a01b031663c612a8086040518163ffffffff1660e01b8152600401602060405180830381865afa15801562001110573d6000803e3d6000fd5b505050506040513d601f19601f8201168201806040525081019062001136919062001d0d565b604080519485526001600160a01b03909316602085015291830152606082015260800160405180910390a3506200116d6001600055565b5050565b82156200143a576000856001600160a01b031663c3736fe66040518163ffffffff1660e01b8152600401602060405180830381865afa158015620011b9573d6000803e3d6000fd5b505050506040513d601f19601f82011682018060405250810190620011df919062001d0d565b9050856001600160a01b031663d538df496040518163ffffffff1660e01b8152600401600060405180830381600087803b1580156200121d57600080fd5b505af115801562001232573d6000803e3d6000fd5b50505050856001600160a01b0316630ee2cb106040518163ffffffff1660e01b8152600401602060405180830381865afa15801562001275573d6000803e3d6000fd5b505050506040513d601f19601f820116820180604052508101906200129b919062001c9b565b6001600160a01b0316866001600160a01b03167ffe45b5432fda489a54f62aee430bcf72a5639b3174a0528dc94572338079642683896001600160a01b03166368e6ea756040518163ffffffff1660e01b8152600401602060405180830381865afa1580156200130f573d6000803e3d6000fd5b505050506040513d601f19601f8201168201806040525081019062001335919062001d0d565b8a6001600160a01b031663624aa0fd6040518163ffffffff1660e01b8152600401602060405180830381865afa15801562001374573d6000803e3d6000fd5b505050506040513d601f19601f820116820180604052508101906200139a919062001c9b565b8b6001600160a01b0316637bef4f546040518163ffffffff1660e01b8152600401602060405180830381865afa158015620013d9573d6000803e3d6000fd5b505050506040513d601f19601f82011682018060405250810190620013ff919062001c9b565b6040805194855260208501939093526001600160a01b0391821684840152166060830152426080830152519081900360a00190a35062000cbb565b8315620016a2576000856001600160a01b03166368e6ea756040518163ffffffff1660e01b8152600401602060405180830381865afa15801562001482573d6000803e3d6000fd5b505050506040513d601f19601f82011682018060405250810190620014a8919062001d0d565b9050856001600160a01b03166391b517606040518163ffffffff1660e01b8152600401600060405180830381600087803b158015620014e657600080fd5b505af1158015620014fb573d6000803e3d6000fd5b50505050856001600160a01b0316630ee2cb106040518163ffffffff1660e01b8152600401602060405180830381865afa1580156200153e573d6000803e3d6000fd5b505050506040513d601f19601f8201168201806040525081019062001564919062001c9b565b6001600160a01b0316866001600160a01b03167ffe45b5432fda489a54f62aee430bcf72a5639b3174a0528dc94572338079642683896001600160a01b031663c3736fe66040518163ffffffff1660e01b8152600401602060405180830381865afa158015620015d8573d6000803e3d6000fd5b505050506040513d601f19601f82011682018060405250810190620015fe919062001d0d565b8a6001600160a01b0316637bef4f546040518163ffffffff1660e01b8152600401602060405180830381865afa1580156200163d573d6000803e3d6000fd5b505050506040513d601f19601f8201168201806040525081019062001663919062001c9b565b8b6001600160a01b031663624aa0fd6040518163ffffffff1660e01b8152600401602060405180830381865afa158015620013d9573d6000803e3d6000fd5b811562000cbb576000856001600160a01b031663f9a19e546040518163ffffffff1660e01b8152600401602060405180830381865afa158015620016ea573d6000803e3d6000fd5b505050506040513d601f19601f8201168201806040525081019062001710919062001d0d565b604051632539276f60e21b8152600481018490529091506001600160a01b038716906394e49dbc90602401600060405180830381600087803b1580156200175657600080fd5b505af11580156200176b573d6000803e3d6000fd5b50506040805184815260208101869052428183015290516001600160a01b038a1693507f0bd3cc1c5d7fe612c55d1f11d85563be2fbfe6b40cb0d0361e60b07b996fbeda92509081900360600190a2505050505050565b600260005403620018165760405162461bcd60e51b815260206004820152601f60248201527f5265656e7472616e637947756172643a207265656e7472616e742063616c6c00604482015260640162000ca3565b6002600055565b6001600160a01b038116620018675760405162461bcd60e51b815260206004820152600f60248201526e496e76616c6964206164647265737360881b604482015260640162000ca3565b6001600160a01b0381166000908152600360209081526040808320805460ff19169055600290915281205460018054919291620018a690829062001cf1565b81548110620018b957620018b962001d27565b600091825260209091200154600180546001600160a01b039092169250829184908110620018eb57620018eb62001d27565b600091825260208083209190910180546001600160a01b0319166001600160a01b039485161790559183168152600290915260409020829055600180548062001938576200193862001db3565b60008281526020808220830160001990810180546001600160a01b03191690559092019092556001600160a01b03949094168152600290935250506040812055565b61187f8062001dca83390190565b6001600160a01b03811681146200199e57600080fd5b50565b8035620019ae8162001988565b919050565b600080600060608486031215620019c957600080fd5b8335620019d68162001988565b95602085013595506040909401359392505050565b600060208284031215620019fe57600080fd5b813562001a0b8162001988565b9392505050565b6020808252825182820181905260009190848201906040850190845b8181101562001a555783516001600160a01b03168352928401929184019160010162001a2e565b50909695505050505050565b80151581146200199e57600080fd5b8035620019ae8162001a61565b6000806000806000806000806000806101408b8d03121562001a9e57600080fd5b8a3562001aab8162001988565b995060208b013562001abd8162001988565b985060408b013562001acf8162001988565b975060608b013562001ae18162001988565b965060808b013562001af38162001988565b955060a08b0135945060c08b0135935060e08b013562ffffff8116811462001b1a57600080fd5b925062001b2b6101008c01620019a1565b915062001b3c6101208c0162001a70565b90509295989b9194979a5092959850565b60006020828403121562001b6057600080fd5b5035919050565b6000806040838503121562001b7b57600080fd5b823562001b888162001988565b946020939093013593505050565b821515815260006020604081840152835180604085015260005b8181101562001bce5785810183015185820160600152820162001bb0565b506000606082860101526060601f19601f830116850101925050509392505050565b600080600080600060a0868803121562001c0957600080fd5b853562001c168162001988565b9450602086013562001c288162001a61565b9350604086013562001c3a8162001a61565b9250606086013562001c4c8162001a61565b949793965091946080013592915050565b6000806040838503121562001c7157600080fd5b823562001c7e8162001988565b9150602083013562001c908162001988565b809150509250929050565b60006020828403121562001cae57600080fd5b815162001a0b8162001988565b60006020828403121562001cce57600080fd5b815162001a0b8162001a61565b634e487b7160e01b600052601160045260246000fd5b8181038181111562001d075762001d0762001cdb565b92915050565b60006020828403121562001d2057600080fd5b5051919050565b634e487b7160e01b600052603260045260246000fd5b6000806000806080858703121562001d5457600080fd5b845162001d618162001a61565b602086015190945062001d748162001a61565b604086015190935062001d878162001a61565b6060959095015193969295505050565b60006001820162001dac5762001dac62001cdb565b5060010190565b634e487b7160e01b600052603160045260246000fdfe6101006040523480156200001257600080fd5b506040516200187f3803806200187f833981016040819052620000359162000240565b600160008181556001600160a01b038e81166080528d811660a05282546001600160a01b03199081168e83161784556002805482168e84161790556003805482168d8416179055600480549091168a8316179055891660c05260e087905260098054600888905563ffffffff191661010062ffffff8816021783179055600e80549192909160ff191690830217905550886001600160a01b031663313ce5676040518163ffffffff1660e01b8152600401602060405180830381865afa15801562000104573d6000803e3d6000fd5b505050506040513d601f19601f820116820180604052508101906200012a91906200032c565b600b60006101000a81548160ff021916908360ff160217905550896001600160a01b031663313ce5676040518163ffffffff1660e01b8152600401602060405180830381865afa15801562000183573d6000803e3d6000fd5b505050506040513d601f19601f82011682018060405250810190620001a991906200032c565b600b8054921515600160b01b0260ff60b01b196001600160a01b03909516620100000262010000600160b01b031960ff949094166101000293909316610100600160b01b0319909416939093179190911792909216179055506200035898505050505050505050565b80516001600160a01b03811681146200022a57600080fd5b919050565b805180151581146200022a57600080fd5b6000806000806000806000806000806000806101808d8f0312156200026457600080fd5b6200026f8d62000212565b9b506200027f60208e0162000212565b9a506200028f60408e0162000212565b99506200029f60608e0162000212565b9850620002af60808e0162000212565b9750620002bf60a08e0162000212565b9650620002cf60c08e0162000212565b955060e08d015194506101008d015193506101208d015162ffffff81168114620002f857600080fd5b9250620003096101408e0162000212565b91506200031a6101608e016200022f565b90509295989b509295989b509295989b565b6000602082840312156200033f57600080fd5b815160ff811681146200035157600080fd5b9392505050565b60805160a05160c05160e0516114a7620003d86000396000818161029b015281816106df01528181610ad701528181610c750152610d040152600081816101d70152818161025d015281816103850152610b8001526000818161018501528181610585015261060a0152600081816102d2015261091b01526114a76000f3fe608060405234801561001057600080fd5b50600436106101585760003560e01c806398d07356116100c3578063d538df491161007c578063d538df49146102f6578063def74f91146102fe578063e2bbb15814610306578063eee2bfa014610319578063f0b9468414610321578063f9a19e541461035157600080fd5b806398d0735614610281578063a0a8045e14610289578063c3736fe614610291578063c612a80814610299578063d39ac0cb146102bf578063d5009584146102d057600080fd5b8063624aa0fd11610115578063624aa0fd1461021657806368e6ea75146102275780637bef4f541461022f57806391b517601461024057806394e49dbc14610248578063983733f01461025b57600080fd5b806307415ae01461015d5780630ee2cb10146101835780631865c57d146101bd5780631966b608146101d25780634096c91c146101f957806351cff8d914610201575b600080fd5b61017061016b3660046110f5565b610359565b6040519081526020015b60405180910390f35b7f00000000000000000000000000000000000000000000000000000000000000005b6040516001600160a01b03909116815260200161017a565b6101c5610402565b60405161017a9190611142565b6101a57f000000000000000000000000000000000000000000000000000000000000000081565b600854610170565b61021461020f3660046110f5565b610533565b005b6001546001600160a01b03166101a5565b600754610170565b6002546001600160a01b03166101a5565b610214610648565b610214610256366004611175565b600555565b7f00000000000000000000000000000000000000000000000000000000000000006101a5565b600a54610170565b610170610730565b600654610170565b7f0000000000000000000000000000000000000000000000000000000000000000610170565b6003546001600160a01b03166101a5565b7f00000000000000000000000000000000000000000000000000000000000000006101a5565b610214610852565b610214610910565b61021461031436600461118e565b6109a6565b610170610b4f565b610329610c3c565b604080519415158552921515602085015290151591830191909152606082015260800161017a565b600554610170565b600480546040516317f271b760e31b815260009283926001600160a01b03169163bf938db8916103ba917f0000000000000000000000000000000000000000000000000000000000000000918891670de0b6b3a764000091600191016111b0565b602060405180830381865afa1580156103d7573d6000803e3d6000fd5b505050506040513d601f19601f820116820180604052508101906103fb91906111f0565b9392505050565b60606000600e5460ff16600381111561041d5761041d611209565b0361044a575060408051808201909152600d81526c155b9a5b9a5d1a585b1a5e9959609a1b602082015290565b6002600e5460ff16600381111561046357610463611209565b0361048b57506040805180820190915260088152674c696d697442757960c01b602082015290565b6001600e5460ff1660038111156104a4576104a4611209565b036104d0575060408051808201909152600c81526b0547261696c696e6753746f760a41b602082015290565b6003600e5460ff1660038111156104e9576104e9611209565b036105115750604080518082019091526008815267496e61637469766560c01b602082015290565b506040805180820190915260078152662ab735b737bbb760c91b602082015290565b6002546000906001600160a01b03908116908316036105bb57506007548061056e5760405163162908e360e11b815260040160405180910390fd5b60006007556002546105aa906001600160a01b03167f000000000000000000000000000000000000000000000000000000000000000083610dc2565b5050600e805460ff19166003179055565b6001546001600160a01b039081169083160361062f5750600654806105f35760405163162908e360e11b815260040160405180910390fd5b60006006556001546105aa906001600160a01b03167f000000000000000000000000000000000000000000000000000000000000000083610dc2565b60405163c1ab6dc160e01b815260040160405180910390fd5b6002600e5460ff16600381111561066157610661611209565b146106ab5760405162461bcd60e51b81526020600482015260156024820152744e6f7420696e204c696d697442757920737461746560581b60448201526064015b60405180910390fd5b6002546001546007546106cb926001600160a01b03908116921690610ec2565b5060006106d6610b4f565b905060646107047f000000000000000000000000000000000000000000000000000000000000000082611235565b61070e908361124e565b6107189190611265565b600555506000600c55600e805460ff19166001179055565b600080600b60029054906101000a90046001600160a01b03166001600160a01b031663feaf968c6040518163ffffffff1660e01b815260040160a060405180830381865afa158015610786573d6000803e3d6000fd5b505050506040513d601f19601f820116820180604052508101906107aa91906112a1565b5050509150506000600b60029054906101000a90046001600160a01b03166001600160a01b031663313ce5676040518163ffffffff1660e01b8152600401602060405180830381865afa158015610805573d6000803e3d6000fd5b505050506040513d601f19601f8201168201806040525081019061082991906112f1565b9050610836816012611314565b61084190600a611411565b61084b908361124e565b9250505090565b6001600e5460ff16600381111561086b5761086b611209565b146108b85760405162461bcd60e51b815260206004820152601960248201527f4e6f7420696e20547261696c696e6753746f702073746174650000000000000060448201526064016106a2565b6001546002546006546108d8926001600160a01b03908116921690610ec2565b506001546108ee906001600160a01b0316610359565b600c556108fe4262015180611420565b600d55600e805460ff19166002179055565b336001600160a01b037f000000000000000000000000000000000000000000000000000000000000000016146109925760405162461bcd60e51b815260206004820152602160248201527f6f6e6c792063616c6c61626c65206279206d616e6167657220636f6e747261636044820152601d60fa1b60648201526084016106a2565b6009805460ff19811660ff90911615179055565b600082116109c75760405163162908e360e11b815260040160405180910390fd5b6003600e5460ff1660038111156109e0576109e0611209565b036109fe57604051631b92e95360e31b815260040160405180910390fd5b6001546040516323b872dd60e01b8152336004820152306024820152604481018490526000916001600160a01b0316906323b872dd906064016020604051808303816000875af1158015610a56573d6000803e3d6000fd5b505050506040513d601f19601f82011682018060405250810190610a7a9190611433565b905080610a9a576040516312171d8360e31b815260040160405180910390fd5b8260066000828254610aac9190611420565b9091555060009050600e5460ff166003811115610acb57610acb611209565b03610b21576064610afc7f000000000000000000000000000000000000000000000000000000000000000082611235565b610b06908461124e565b610b109190611265565b600555600e805460ff191660011790555b82610b2a610b4f565b610b34919061124e565b600a6000828254610b459190611420565b9091555050505050565b600480546001546040516317f271b760e31b815260009384936001600160a01b039081169363bf938db893610bb8937f00000000000000000000000000000000000000000000000000000000000000009390921691670de0b6b3a76400009161012c91016111b0565b602060405180830381865afa158015610bd5573d6000803e3d6000fd5b505050506040513d601f19601f82011682018060405250810190610bf991906111f0565b600b54909150600160b01b900460ff1615610c37576000610c18610730565b9050670de0b6b3a7640000610c2d828461124e565b61084b9190611265565b919050565b60008080806001600e5460ff166003811115610c5a57610c5a611209565b03610d55576000610c69610b4f565b90506000808080610c9b7f00000000000000000000000000000000000000000000000000000000000000006064611235565b600554610ca990606461124e565b610cb39190611265565b9050600060646008546064610cc89190611420565b610cd2908461124e565b610cdc9190611265565b9050600554861015610cf15760019450610d40565b80861115610d4057600193506064610d297f000000000000000000000000000000000000000000000000000000000000000082611235565b610d33908861124e565b610d3d9190611265565b92505b50600098509296509094509250610dbc915050565b6002600e5460ff166003811115610d6e57610d6e611209565b03610daf576000610d7d610b4f565b90506000600c5482108015610d935750600d5442115b15610d9c575060015b945060009350839250829150610dbc9050565b5060009250829150819050805b90919293565b604080516001600160a01b038481166024830152604480830185905283518084039091018152606490920183526020820180516001600160e01b031663a9059cbb60e01b1790529151600092839290871691610e1e9190611455565b6000604051808303816000865af19150503d8060008114610e5b576040519150601f19603f3d011682016040523d82523d6000602084013e610e60565b606091505b5091509150818015610e8a575080511580610e8a575080806020019051810190610e8a9190611433565b610ebb5760405162461bcd60e51b815260206004820152600260248201526114d560f21b60448201526064016106a2565b5050505050565b600080610ece85610359565b60095490915060009062ffffff6101008204169060ff1615610f265769152d02c7e14af6800000610f01826101f4611420565b610f0b858861124e565b610f15919061124e565b610f1f9190611265565b9150610f2b565b600091505b60035460405163095ea7b360e01b81526001600160a01b039182166004820152602481018790529088169063095ea7b3906044016020604051808303816000875af1158015610f7e573d6000803e3d6000fd5b505050506040513d601f19601f82011682018060405250810190610fa29190611433565b506040805160e0810182526001600160a01b03898116825288811660208301908152600954610100900462ffffff9081168486019081523060608601908152608086018c815260a087018a8152600060c089018181526003549a516304e45aaf60e01b81528a518a166004820152975189166024890152945190951660448701529151861660648601525160848501525160a484015251831660c48301529293909116906304e45aaf9060e4016020604051808303816000875af115801561106e573d6000803e3d6000fd5b505050506040513d601f19601f8201168201806040525081019061109291906111f0565b6002549091506001600160a01b03908116908a16036110cc5780600660008282546110bd9190611420565b909155505060006007556110e9565b80600760008282546110de9190611420565b909155505060006006555b98975050505050505050565b60006020828403121561110757600080fd5b81356001600160a01b03811681146103fb57600080fd5b60005b83811015611139578181015183820152602001611121565b50506000910152565b602081526000825180602084015261116181604085016020870161111e565b601f01601f19169190910160400192915050565b60006020828403121561118757600080fd5b5035919050565b600080604083850312156111a157600080fd5b50508035926020909101359150565b6001600160a01b0394851681529290931660208301526fffffffffffffffffffffffffffffffff16604082015263ffffffff909116606082015260800190565b60006020828403121561120257600080fd5b5051919050565b634e487b7160e01b600052602160045260246000fd5b634e487b7160e01b600052601160045260246000fd5b818103818111156112485761124861121f565b92915050565b80820281158282048414176112485761124861121f565b60008261128257634e487b7160e01b600052601260045260246000fd5b500490565b805169ffffffffffffffffffff81168114610c3757600080fd5b600080600080600060a086880312156112b957600080fd5b6112c286611287565b94506020860151935060408601519250606086015191506112e560808701611287565b90509295509295909350565b60006020828403121561130357600080fd5b815160ff811681146103fb57600080fd5b60ff82811682821603908111156112485761124861121f565b600181815b8085111561136857816000190482111561134e5761134e61121f565b8085161561135b57918102915b93841c9390800290611332565b509250929050565b60008261137f57506001611248565b8161138c57506000611248565b81600181146113a257600281146113ac576113c8565b6001915050611248565b60ff8411156113bd576113bd61121f565b50506001821b611248565b5060208310610133831016604e8410600b84101617156113eb575081810a611248565b6113f5838361132d565b80600019048211156114095761140961121f565b029392505050565b60006103fb60ff841683611370565b808201808211156112485761124861121f565b60006020828403121561144557600080fd5b815180151581146103fb57600080fd5b6000825161146781846020870161111e565b919091019291505056fea26469706673582212205cabbafb1749ae103f925ddf5f490a4a929ddc6e7a98b842847abd1c0cccfa8b64736f6c63430008140033a26469706673582212205c3537341185733f9a78dfa679ec506c99e3c7e9ecf742c9bfd077b7141db59b64736f6c63430008140033",
  "devdoc": {
    "kind": "dev",
    "methods": {
      "checker()": {
        "details": "Part of the Gelato automation",
        "returns": {
          "canExec": "Boolean flag indicating if upkeep is needed.",
          "execPayload": "Encoded data on what action to perform during upkeep."
        }
      },
      "performUpkeep(address,bool,bool,bool,uint256)": {
        "details": "Part of the gelato automation."
      }
    },
    "version": 1
  },
  "userdoc": {
    "kind": "user",
    "methods": {
      "checker()": {
        "notice": "Checks if upkeep is needed based on TSL conditions.COMPUTED OFF-CHAIN"
      },
      "performUpkeep(address,bool,bool,bool,uint256)": {
        "notice": "Performs the upkeep of updating the stop loss threshold or triggering a sell."
      }
    },
    "version": 1
  },
  "storageLayout": {
    "storage": [
      {
        "astId": 56,
        "contract": "contracts/TrailMixManager.sol:TrailMixManager",
        "label": "_status",
        "offset": 0,
        "slot": "0",
        "type": "t_uint256"
      },
      {
        "astId": 2165,
        "contract": "contracts/TrailMixManager.sol:TrailMixManager",
        "label": "activeStrategies",
        "offset": 0,
        "slot": "1",
        "type": "t_array(t_address)dyn_storage"
      },
      {
        "astId": 2169,
        "contract": "contracts/TrailMixManager.sol:TrailMixManager",
        "label": "strategyIndex",
        "offset": 0,
        "slot": "2",
        "type": "t_mapping(t_address,t_uint256)"
      },
      {
        "astId": 2173,
        "contract": "contracts/TrailMixManager.sol:TrailMixManager",
        "label": "isActiveStrategy",
        "offset": 0,
        "slot": "3",
        "type": "t_mapping(t_address,t_bool)"
      },
      {
        "astId": 2178,
        "contract": "contracts/TrailMixManager.sol:TrailMixManager",
        "label": "userContracts",
        "offset": 0,
        "slot": "4",
        "type": "t_mapping(t_address,t_array(t_address)dyn_storage)"
      },
      {
        "astId": 2180,
        "contract": "contracts/TrailMixManager.sol:TrailMixManager",
        "label": "gelatoExecutor",
        "offset": 0,
        "slot": "5",
        "type": "t_address"
      },
      {
        "astId": 2182,
        "contract": "contracts/TrailMixManager.sol:TrailMixManager",
        "label": "managerDeployer",
        "offset": 0,
        "slot": "6",
        "type": "t_address"
      }
    ],
    "types": {
      "t_address": {
        "encoding": "inplace",
        "label": "address",
        "numberOfBytes": "20"
      },
      "t_array(t_address)dyn_storage": {
        "base": "t_address",
        "encoding": "dynamic_array",
        "label": "address[]",
        "numberOfBytes": "32"
      },
      "t_bool": {
        "encoding": "inplace",
        "label": "bool",
        "numberOfBytes": "1"
      },
      "t_mapping(t_address,t_array(t_address)dyn_storage)": {
        "encoding": "mapping",
        "key": "t_address",
        "label": "mapping(address => address[])",
        "numberOfBytes": "32",
        "value": "t_array(t_address)dyn_storage"
      },
      "t_mapping(t_address,t_bool)": {
        "encoding": "mapping",
        "key": "t_address",
        "label": "mapping(address => bool)",
        "numberOfBytes": "32",
        "value": "t_bool"
      },
      "t_mapping(t_address,t_uint256)": {
        "encoding": "mapping",
        "key": "t_address",
        "label": "mapping(address => uint256)",
        "numberOfBytes": "32",
        "value": "t_uint256"
      },
      "t_uint256": {
        "encoding": "inplace",
        "label": "uint256",
        "numberOfBytes": "32"
      }
    }
  }
}